:4000000000800020110000001D0200001D02000008B5044B1A6803F53F5302331A6000F01DF900BFFA46004010B5054C237833B9044B13B10448AFF300800123237010BD23
:40004000C081FF1F00000000B8420000084B10B51BB108480849AFF300800848036803B910BD074B002BFBD0BDE81040184700BF00000000B8420000C481FF1F0881FF1FDD
:40008000000000000000000010B5002000F01EFD00F034FD2A4C208000F058FD606001F0BBFA21A3D3E9002301F00AFB20A3D3E9002301F051F920A3D3E9002301F000FB6A
:4000C0000022204B01F026FC01F094FDA060E3680A2B22DD012001F01FF90A2000F0B0FE002001F019F94FF47A7000F0A9FE01F019F90128FBD001F005F9C0F57F40FF30FD
:400100000F4C206101F076FA00220F4B01F002FC01F070FD60610023E360094AD3680133D36010BDAFF30080B29DEFA7C60B2F40355EBA490C724140A7E8482EFF21094086
:40014000DC81FF1F0080664000004D40AFF3008080B584B000F09EFC00F0B0FC01F0C4F800F0C2FA274800F021FD62B600F0BCFF012000F06DFF0020014600F0C3FF224807
:4001800000F058FF01F00AF8204C04F11805606801F042FA06460F46606901F03DFACDE9000128461A4932463B4602F0A3FC0120002100F0A7FF284600F03CFF04F1280060
:4001C00001F006F8134801F003F8104C04F12805A06801F021FA06460F46606901F01CFACDE90001A36B029328460B4932463B4602F080FC284600F0EBFF064800F0E8FFD6
:40020000E3E700BF89000000C0420000DC81FF1FD0420000E0420000E442000008B501F097FF03680C2B00D1FEE7FEE708B5094B1A681044084BC31AB3F5007F02DC054BE8
:40024000186005E001F084FF0C2303604FF0FF32104608BD0C81FF1F4882FF1F08B5104E104D16E029686B68AC68002204E051F8040B43F8040B0432A242F8D1E86800221A
:4002800003E0002143F8041B04328242F9D11035013E002EE6D101F061FFFFF759FFFEE701000000CC44000008B5124A124B1A60124A136843F40073136000230AE0032BFF
:4002C00003D80F4A52F8231000E00E490E4A42F8231001332F2BF2D90C4B1A780C4B1A70094A0C4B1A6000F017F900220A4B1A6008BD00BF0004FA050CED00E014ED00E0D8
:40030000000000001D0200000080FF1FBC7600400481FF1F08ED00E00081FF1FFEE700BFF0B40022174611E050F82760F3B226F0FF0608E001EB420511F812406D78A555DB
:400340000132013BDBB2002BF4D10137202FEBD9F0BC70470A4B1B78DBB203F00701094A11701B09013213702022074B1A70022203F693131A704422A3F28A231A70704771
:40038000CF0100496E5800406D51004008B50A46002101F014FF08BD08B501F005FF08BD38B50022424B1A80502202331A70172202331A8018233F4A1370192102321180FD
:4003C0000232137044F61F623B4B1A801B2202331A703A483A490422FFF7DEFF0622394B1A7043F21332EE3B1A80023B05221A701B7843F2C82404E04FF4F07000F098FF4E
:40040000013C24B1304B1B7813F0800FF4D114B90120FFF783FF40224FF040231A70702203F500731A704FF4E16222331A8041F25122023B1A80002419250CE0234B1B7889
:4004400003F0010343EA440404F003044FF4F07000F06EFF013D0DB1032CEFD115B90320FFF75CFF1A4A4FF48073138007231370002318490B704820023108701370053242
:4004800013700222144B1A7004220A331A70134A137843F00F031370013A137843F001031370013A137843F08003137038BD00BF80400040864000408C4000400041004049
:4004C00068050048004300401042004025420040044000400640004001400040A2430040012807D8044B53F820201844017A13780B431370704700BFF4420000012808D811
:40050000044B53F820201844017A137823EA010313707047F442000038B572B6374A137843F00403137000240AE0354963001A1952000A44D068118AFFF728FF0134E4B2A3
:40054000092CF2D900240BE02D49A3001A1952000A44906CD16C8022FFF71EFF0134E4B2002CF1D04FF090402649FFF7D9FE0A25254B1D70254A137843F00203137010326C
:40058000137843F002031370214C237843F040032370A2F58632513A137843F0100313701C481D492A46FFF7F7FE1C481C490822FFF7F2FE1B481C490822FFF7EDFE1B4882
:4005C0001B490822FFF7E8FE1A481B492A46FFF7E3FE1A4A137843F008031370184D01232B70FFF7DDFE81232B70FFF7B3FE154821460E22FFF7D0FE38BD00BFE84600401F
:40060000F4420000840000488358004003500140A0430040F0510040380500481251004044050048225100404C0500485251004054050048605100405C050048224300409D
:4006400000480040B0430040024A137843F080031370704778650040014B1870704700BF8A650040014B1878704700BF6A65004008B50146014800F019FC08BD286500401D
:40068000024B186820F07F40704700BF4865004008B50146014800F009FC08BD0865004008B501E0FFF7ECFFFFF7DCFF10F0080FF8D108BD08B541F28730FFF7D9FF41F2EA
:4006C0008730FFF7E5FF00F03BFE064A137843F01003137000F038FEFFF7E2FF0020FFF7BBFF08BD9A65004008B5054B1B7823B9FFF7E0FF0122024B1A70FFF7A5FF08BD21
:400700001C82FF1F10B59DF80840012C4AD10138092826D8DFE800F00525250525250D15251D0F2B02D9214800781BE02048007818E00F2B02D91F48007813E01E48007864
:4007400010E00F2B02D91D4800780BE01C48007808E00F2B02D91B48007803E01A48007800E0002040B201EB401101FB02F1C90B8AB20D2B0BD8C3F10E0289B211418AB265
:40078000124901EB8401013301F8023C05E00F4B03EB84030F2103F8021C013C0B4B23F8242010BD002000F033FB10BD180100491C010049190100491D0100491A01004945
:4007C0001E0100491B0100491F0100492082FF1FF8B5074600F0B4FD06460D4D2B7843F003032B700B4C237843F0030323700A4B1F70032000F024FB2B7803F0FC032B7047
:40080000237803F0FC032370304600F09DFDF8BDF8460040F9460040925800400022314B1A7101285DD170B538222F4B1A70062202331A70082201331A70002401331C7006
:4008400001331C701F2201331A7002331C7001331C7001331C7001250A331D70142203F527631A70052601331E70162201331A7001331C70442203331A70482201331A7055
:4008800001331D7002331C7001331C700A2201331A70432201331A705220FFF799FF5822124B1A7001331C7005331E70022201331A7001331C7001331C70204600F094F9BD
:4008C00040F233320A4B1A602D20294600F0B0F9BA20294600F030FA1D20064900F0BAFA70BD70472082FF1F004E0040945800403C82FF1F750B0000F0B583B0284D01277B
:400900002F70284E00247471102000F07FF9102000F000FA1D20072100F0B0FA0422224B1A7001331C7007331C70204A137843F0180313701E4B1C7003F2F5231C700133BD
:400940001C700A22A3F209331A7001331C7002331C70122205331A70132201331A7004331C701422A3F68C231A700097022048F66B514FF400420C23FFF7C4FE2B7806EB7C
:40098000830313F8022C0B4B1A702B78013B36F82320094B1A802878FFF740FF03B0F0BD1081FF1F2082FF1F96580040075B0040935800400E4E00400C4E004070B500F070
:4009C000BFFC06462A4B1B782A4B1A7842F001021A701A7842F010021A7010331A7842F001021A701A7842F010021A70224D2B7843F002032B70214C237843F00203237016
:400A00001F4A137843F003031370032000F018FA2B7803F0FD032B70237803F0FD032370184A137843F0060313707A22164B1A70164A137843F0010313701032137843F0B7
:400A4000010313700F3A137843F0010313701032137843F0010313704FF000530C4A1360A2F5C0721360304600F06EFC70BD00BF1081FF1FAA430040F8460040F9460040AE
:400A8000915800407758004082580040A143004080E200E008B5084B9B794BB9064BDB7913F0FF0F01D1FFF727FF0122024B9A71FFF784FF08BD00BF2082FF1F024A1378A3
:400AC00043F0010313707047004E0040094B1B7913F0FF0F03D0074B5B79DBB203E0064B1B7803F00103012B01D00028EED01846704700BF2082FF1F014E00400E4B1B78C8
:400B000003F00303012B03D80C4B188880B209E00A4A12780A49087842EA0020032B01D1084B1B78084B1B7913F0FF0F02D00022054B5A7100B27047144E0040104E004010
:400B4000114E0040124E00402082FF1F10B5074B1B68C01A01F058F90446054B186801F053F90146204601F057FA10BD3882FF1F3C82FF1F704700BF014B1B68D8647047C1
:400B800008ED00E04001C0B2014B1870704700BF03E400E00822014B1A60704700E100E00822014B1A60704780E100E010B50446FFF7F6FF2046FFF7DFFF0720FFF7E2FF1A
:400BC000FFF7E8FF10BD00BF10B5002404E02046FFF794FC0134E4B2012CF8D9FF22014B1A7010BD1181FF1F10B50446FFF7ECFF2046FFF775FC014B1C7010BD1181FF1F84
:400C0000014B188880B2704780400040034B1A7800F0F80010431870704700BF82400040024B187800F00700704700BF8240004070B505460E46FFF7F3FF0446FFF7E0FFAD
:400C4000854256D02B4B1B7803F0010294B900B185B938B9284B1D80284A137803F0BF03137070BD254A137843F040031370224B1D8070BD22B3002321490B7001240F317D
:400C80000C7004310B700C390B7803F07F030B701A4B1B7813F0080F00D08DB9194B18800721013B1970164B1B7813F0010FFAD110490B7803F0FE030B700021104B19701D
:400CC0000C4B1B7813F0010F0DD00E4B1D800EB1032200E001220A4B1A70094B1B7813F0010FFAD170BD044B1D8002490B7813430B7070BDA243004080400040824000408D
:400D00000140004002400040014B188880B2704700410040034B1A7800F0F80010431870704700BF02410040024B187800F00700704700BF0241004070B505460E46FFF737
:400D4000F3FF0446FFF7E0FF854256D02B4B1B7803F0010294B900B185B938B9284B1D80284A137803F0BF03137070BD254A137843F040031370224B1D8070BD22B30023B5
:400D800021490B70012413310C7004390B7008390B7803F07F030B701A4B1B7813F0080F00D08DB9194B18800721013B1970164B1B7813F0010FFAD110490B7803F0FE034A
:400DC0000B700021104B19700C4B1B7813F0010F0DD00E4B1D800EB1032200E001220A4B1A70094B1B7813F0010FFAD170BD044B1D8002490B7813430B7070BDA14300400F
:400E00000041004002410040014000400240004001BE704710B5044605E0084B186800F087FAA4F50044B4F5004FF6D8034B586800FB04F000F07CFA10BD00BF1481FF1FB8
:400E400008B5034B1B7A03FB00F000F071FA08BD1481FF1F70B504460E46074B1D681F2802D90020FFF7D4FF04F01F04103455F8240045F8246070BD08ED00E038B50446A6
:400E80000D46072902D90020FFF7C2FF1F2C02D90020FFF7BDFF04F01F0000F1604000F564406D01EDB2057038BD00BFCBB20370C1F307234370C1F307418170704700BFAE
:400EC00010B50B4C237803F09F032370237803F0F00323702378184340F0100020700120FFF7AEFF237803F0EF03237010BD00BF2051004038B505460E4C237843F02003A2
:400F00002370237803F0BF0323700020FFF798FF237803F0F003237023781D4345F0100525700120FFF78CFF237803F0EF03237038BD00BF2051004070B5354B1A7802F05D
:400F40008002D2B21A7033490A7802F0F00242F00F020A7001310A7802F0F0020A7001310A7802F0F0020A701A7802F0DF021A701A7842F040021A704FF4CA760020FFF706
:400F80005FFF234D2B7843F010032B700120FFF757FF214B1C78E4B22B7803F0EF032B700020FFF74DFF04F00804E4B22B7843F010032B700120FFF743FF2B7803F0EF035C
:400FC0002B7014B90A20FFF73BFF013E0CB1002ED4D10F4A137803F0BF031370137803F08003DBB213700232137803F0F00313700132137803F0F00343F00F03137001326C
:40100000137803F0F00343F00F03137070BD00BF20510040225100402151004010B50446FFF78AFF2009FFF765FF04F00F00FFF761FF10BD38B505460078012404E0FFF78F
:40104000EDFF285D0134E4B20028F8D138BD00BF10B50446FFF770FF2009FFF731FF04F00F00FFF72DFF10BD08B52820FFF7D2FE0320FFF725FF0520FFF7CCFE0320FFF7D4
:401080001FFF0F20FFF7C6FE0320FFF719FF0120FFF7C0FE0220FFF713FF0520FFF7BAFE0620FFF7D5FF0E20FFF7D2FF2C20FFF7CFFF0820FFF7CCFF0120FFF7C9FF0C203D
:4010C000FFF7C6FF0320FFF7C3FF0520FFF7A2FE08BD00BF08B50C20FFF7BAFF0122014B1A7008BD2882FF1F08B5054B5B7823B9FFF7BAFF0122024B5A70FFF7EBFF08BDB3
:401100002882FF1F08B5032819D8DFE800F002070D1381F08000FFF79BFF08BDA1F14000C0B2FFF795FF08BDA1F16C00C0B2FFF78FFF08BDA1F12C00C0B2FFF789FF08BD29
:401140007222074B1A702022033B1A7006225C3B1A70472210331A70002251331A7070478D64004010B500F0EBF804460A4A137843F020031370033A137843F01003137033
:401180000532137843F01003137000F033F8204600F0DAF810BD00BF9D64004008B5054B1B7823B9FFF7CCFF0122024B1A70FFF7D9FF08BD2A82FF1F034B1B7813F0040F09
:4011C000FAD1024B187070476F6400404F64004038B5074B1B782BB938BDFFF7EDFF0134A4B201E005460024285D0028F5D138BD2A82FF1F054A137843F00403137010321F
:40120000137843F004031370704700BFA2430040084A137843F0010313701032137843F00103137002F64D32137843F001031370704700BFA3430040014B1870704700BF0B
:40124000034F0040014B1880704700BF044F0040014B1880704700BF064F004008B51F4A137803F0010313701D4B1A7802F0FC021A701A7802F0F3021A701A7842F00C028C
:401280001A701A7802F07F021A701A7842F080021A701A78D2B21A7009331A7802F0CF021A701A7842F030021A701A7802F0F0021A701A7842F00F021A700A4A137843F099
:4012C000010313704FF6FF70FFF7BCFF4FF6FF70FFF7BEFF0020FFF7AFFF08BD004F0040024F0040014F004008B5054B1B7823B9FFF7B4FF0122024B1A70FFF789FF08BD00
:401300002C82FF1F024B1B88024B188880B27047064F0040084F0040014B1870704700BF79650040014B1878C0097047115100400230800803D000BF01380046FCD170473A
:40134000EFF3108072B6704780F31088704700BF81F0004102E000BF83F0004330B54FEA41044FEA430594EA050F08BF90EA020F1FBF54EA000C55EA020C7FEA645C7FEAC3
:40138000655C00F0E2804FEA5454D4EB5555B8BF6D420CDD2C4480EA020281EA030382EA000083EA010180EA020281EA0303362D88BF30BD11F0004F4FEA01314FF4801C87
:4013C0004CEA113102D0404261EB410113F0004F4FEA03334CEA133302D0524263EB430394EA050F00F0A780A4F10104D5F1200E0DDB02FA0EFC22FA05F2801841F1000159
:4014000003FA0EF2801843FA05F359410EE0A5F120050EF1200E012A03FA0EFC28BF4CF0020C43FA05F3C01851EBE37101F0004507D54FF0000EDCF1000C7EEB00006EEB78
:401440000101B1F5801F1BD3B1F5001F0CD349085FEA30004FEA3C0C04F101044FEA445212F5800F80F09A80BCF1004F08BF5FEA500C50F1000041EB045141EA050130BD17
:401480005FEA4C0C404141EB010111F4801FA4F10104E9D191F0000F04BF01460020B1FA81F308BF2033A3F10B03B3F120020CDA0C3208DD02F1140CC2F10C0201FA0CF0B5
:4014C00021FA02F10CE002F11402D8BFC2F1200C01FA02F120FA0CFCDCBF41EA0C019040E41AA2BF01EB0451294330BD6FEA04041F3C1CDA0C340EDC04F11404C4F1200207
:4015000020FA04F001FA02F340EA030021FA04F345EA030130BDC4F10C04C4F1200220FA02F001FA04F340EA0300294630BD21FA04F0294630BD94F0000F83F4801306BF5E
:4015400081F480110134013D4EE77FEA645C18BF7FEA655C29D094EA050F08BF90EA020F05D054EA000C04BF1946104630BD91EA030F1EBF0021002030BD5FEA545C05D1CB
:401580004000494128BF41F0004130BD14F580043CBF01F5801130BD01F0004545F0FE4141F470014FF0000030BD7FEA645C1ABF194610467FEA655C1CBF0B46024650EA14
:4015C000013406BF52EA033591EA030F41F4002130BD00BF90F0000F04BF0021704730B54FF4806404F132044FF000054FF0000150E700BF90F0000F04BF0021704730B504
:401600004FF4806404F1320410F0004548BF40424FF000013EE700BF42004FEAE2014FEA31014FEA02701FBF12F07F4393F07F4F81F06051704792F0000F14BF93F07F4F71
:40164000704730B54FF4607401F0004521F0004120E700BF50EA010208BF704730B54FF000050AE050EA010208BF704730B511F0004502D5404261EB41014FF4806404F1B2
:4016800032045FEA915C3FF4DCAE4FF003025FEADC0C18BF03325FEADC0C18BF033202EBDC02C2F1200300FA03FC20FA02F001FA03FE40EA0E0021FA02F11444C1E600BF9D
:4016C00070B54FF0FF0C4CF4E06C1CEA11541DBF1CEA135594EA0C0F95EA0C0F00F0DEF82C4481EA030621EA4C5123EA4C5350EA013518BF52EA033541F4801143F48013BE
:4017000038D0A0FB02CE4FF00005E1FB02E506F00042E0FB03E54FF00006E1FB03569CF0000F18BF4EF0010EA4F1FF04B6F5007F64F5407404D25FEA4E0E6D4146EB0606C6
:4017400042EAC62141EA55514FEAC52040EA5E504FEACE2EB4F1FD0C88BFBCF5E06F1ED8BEF1004F08BF5FEA500E50F1000041EB045170BD06F0004646EA010140EA02007A
:4017800081EA0301B4EB5C04C2BFD4EB0C0541EA045170BD41F480114FF0000E013C00F3AB8014F1360FDEBF002001F0004170BDC4F10004203C35DA0C341BDC04F1140481
:4017C000C4F1200500FA05F320FA04F001FA05F240EA020001F0004221F0004110EBD37021FA04F642EB06015EEA430E08BF20EAD37070BDC4F10C04C4F1200500FA04F37B
:4018000020FA05F001FA04F240EA020001F0004110EBD37041F100015EEA430E08BF20EAD37070BDC4F1200500FA05F24EEA020E20FA04F301FA05F243EA020321FA04F0A8
:4018400001F0004121FA04F220EA020000EBD3705EEA430E08BF20EAD37070BD94F0000F0FD101F00046400041EB010111F4801F08BF013CF7D041EA060195F0000F18BFED
:40188000704703F00046520043EB030313F4801F08BF013DF7D043EA0603704794EA0C0F0CEA135518BF95EA0C0F0CD050EA410618BF52EA4306D1D181EA030101F00041EF
:4018C0004FF0000070BD50EA410606BF1046194652EA430619D094EA0C0F02D150EA013613D195EA0C0F05D152EA03361CBF104619460AD181EA030101F0004141F0FE41F1
:4019000041F470014FF0000070BD41F0FE4141F4780170BD70B54FF0FF0C4CF4E06C1CEA11541DBF1CEA135594EA0C0F95EA0C0F00F0A7F8A4EB050481EA030E52EA033550
:401940004FEA013100F088804FEA03334FF0805545EA131343EA12634FEA022245EA111545EA10654FEA00260EF000419D4208BF964244F1FD0404F5407402D25B084FEAC5
:401980003202B61A65EB03055B084FEA32024FF480104FF4002CB6EB020E75EB030E22BFB61A754640EA0C005B084FEA3202B6EB020E75EB030E22BFB61A754640EA5C0011
:4019C0005B084FEA3202B6EB020E75EB030E22BFB61A754640EA9C005B084FEA3202B6EB020E75EB030E22BFB61A754640EADC0055EA060E18D04FEA051545EA16754FEADE
:401A000006164FEAC30343EA52734FEAC2025FEA1C1CC0D111F4801F0BD141EA00014FF000004FF0004CB6E711F4801F04BF01430020B4F1FD0C88BFBCF5E06F3FF6AFAE25
:401A4000B5EB030C04BFB6EB020C5FEA500C50F1000041EB045170BD0EF0004E4EEA113114EB5C04C2BFD4EB0C0541EA045170BD41F480114FF0000E013C90E645EA060E85
:401A80008DE60CEA135594EA0C0F08BF95EA0C0F3FF43BAF94EA0C0F0AD150EA01347FF434AF95EA0C0F7FF425AF104619462CE795EA0C0F06D152EA03353FF4FDAE104643
:401AC000194622E750EA410618BF52EA43067FF4C5AE50EA41047FF40DAF52EA43057FF4EBAE12E74FF0FF3C06E000BF4FF0010C02E000BF4FF0010C4DF804CD4FEA410C90
:401B00007FEA6C5C4FEA430C18BF7FEA6C5C1BD001B050EA410C0CBF52EA430C91EA030F02BF90EA020F0020704710F1000F91EA030F58BF994208BF90422CBFD8176FEA60
:401B4000E37040F0010070474FEA410C7FEA6C5C02D150EA013C07D14FEA430C7FEA6C5CD6D152EA033CD3D05DF8040B704700BF8446104662468C461946634600E000BFB8
:401B800001B5FFF7B7FF002848BF10F1000F01BD4DF808EDFFF7F4FF0CBF012000205DF808FB00BF4DF808EDFFF7EAFF34BF012000205DF808FB00BF4DF808EDFFF7E0FF0D
:401BC00094BF012000205DF808FB00BF4DF808EDFFF7CEFF94BF012000205DF808FB00BF4DF808EDFFF7C4FF34BF012000205DF808FB00BF4FEA4102B2F1E04324BFB3F587
:401C0000001CDCF1FE5C0DD901F0004C4FEAC0024CEA5070B2F1004F40EB830008BF20F00100704711F0804F21D113F13872BCBF01F00040704741F480114FEA5252C2F1F5
:401C40001802C2F1200C10FA0CF320FA02F018BF40F001004FEAC1234FEAD32303FA0CFC40EA0C0023FA02F34FEA4303CCE77FEA625307D150EA01331EBF4FF0FE4040F491
:401C80004000704701F0004040F0FE4040F40000704700BF80F0004002E000BF81F0004142001FBF5FEA410392EA030F7FEA226C7FEA236C6AD04FEA1262D2EB1363C1BF1D
:401CC000D218414048404140B8BF5B42192B88BF704710F0004F40F4000020F07F4018BF404211F0004F41F4000121F07F4118BF494292EA030F3FD0A2F1010241FA03FC49
:401D000010EB0C00C3F1200301FA03F100F0004302D5494260EB4000B0F5000F13D3B0F1807F06D340084FEA310102F10102FE2A51D2B1F1004F40EBC25008BF20F00100A9
:401D400040EA03007047490040EB000010F4000FA2F10102EDD1B0FA80FCACF1080CB2EB0C0200FA0CF0AABF00EBC25052421843BCBFD0401843704792F0000F81F4000133
:401D800006BF80F400000132013BB5E74FEA41037FEA226C18BF7FEA236C21D092EA030F04D092F0000F08BF0846704790EA010F1CBF0020704712F07F4F04D1400028BFE4
:401DC00040F00040704712F100723CBF00F50000704700F0004343F0FE4040F4000070477FEA226216BF08467FEA23630146420206BF5FEA412390EA010F40F48000704720
:401E00004FF0000304E000BF10F0004348BF40425FEA000C08BF704743F0964301464FF000001CE050EA010208BF70474FF000030AE000BF50EA010208BF704711F00043EB
:401E400002D5404261EB41015FEA010C02BF84460146002043F0B64308BFA3F18053A3F50003BCFA8CF2083AA3EBC25310DB01FA02FC634400FA02FCC2F12002BCF1004FD1
:401E800020FA02F243EB020008BF20F00100704702F1200201FA02FCC2F1200250EA4C0021FA02F243EB020008BF20EADC7070474FF0FF0C1CEAD0521EBF1CEAD15392EAE4
:401EC0000C0F93EA0C0F6FD01A4480EA010C400218BF5FEA41211ED04FF0006343EA501043EA5111A0FB01310CF00040B1F5000F3EBF490041EAD3715B0040EA010062F15F
:401F00007F02FD2A1DD8B3F1004F40EBC25008BF20F00100704790F0000F0CF0004C08BF49024CEA502040EA51207F3AC2BFD2F1FF0340EAC250704740F400004FF00003B3
:401F4000013A5DDC12F1190FDCBF00F000407047C2F10002410021FA02F1C2F1200200FA02FC5FEA310040F1000053EA4C0308BF20EADC70704792F0000F00F0004C02BFD6
:401F8000400010F4000F013AF9D040EA0C0093F0000F01F0004C02BF490011F4000F013BF9D041EA0C018FE70CEAD15392EA0C0F18BF93EA0C0F0AD030F0004C18BF31F096
:401FC000004CD8D180EA010000F00040704790F0000F17BF90F0004F084691F0000F91F0004F14D092EA0C0F01D142020FD193EA0C0F03D14B0218BF084608D180EA010025
:4020000000F0004040F0FE4040F40000704740F0FE4040F4400070474FF0FF0C1CEAD0521EBF1CEAD15392EA0C0F93EA0C0F69D0A2EB030280EA010C49024FEA402037D0A9
:402040004FF0805343EA111143EA10130CF000408B4238BF5B0042F17D024FF4000C8B4224BF5B1A40EA0C00B3EB510F24BFA3EB510340EA5C00B3EB910F24BFA3EB91036C
:4020800040EA9C00B3EBD10F24BFA3EBD10340EADC001B0118BF5FEA1C1CE0D1FD2A3FF650AF8B4240EBC25008BF20F0010070470CF0004C4CEA50207F32C2BFD2F1FF0393
:4020C00040EAC250704740F400004FF00003013A37E792F0000F00F0004C02BF400010F4000F013AF9D040EA0C0093F0000F01F0004C02BF490011F4000F013BF9D041EAE6
:402100000C0195E70CEAD15392EA0C0F08D142027FF47DAF93EA0C0F7FF470AF084676E793EA0C0F04D14B023FF44CAF08466EE730F0004C18BF31F0004CCAD130F000429C
:402140007FF45CAF31F000437FF43CAF5FE700BF014B1868704700BF8481FF1F0E4B70B51E460E4C0025E41AA410A54204D056F8253098470135F8E702F096F9084B094C27
:402180001E46E41AA4100025A54204D056F8253098470135F8E770BDB4440000B4440000B4440000BC44000010B5431E0A44914204D011F8014B03F8014FF8E710BD0346CD
:4021C0000244934202D003F8011BFAE770472DE9F0471E4688B0149F002BB8BF06F10043129927F02007B6BF1E4600232D23462F1446109DDDF84CA00B7003D0452F03D1C3
:40220000013501E0032300E002238DE8280406AB039307AB04932246334600F021FD472F804602D1119BDB0726D5462F08EB050911D198F80030302B0AD120463146002257
:402240000023FFF7A5FC18B9C5F10105CAF80050DAF8003099442046314600220023FFF797FC08B1CDF81C90079B4B4504D25A1C079230221A70F7E74046079B159AC8EBF6
:402280000303136008B0BDE8F087034673B50029B8BF494203F8022BB4BF2D222B22092942701ADD0DF1070426460A2291FBF2F502FB1511092D01F1300104F8011D29460A
:4022C000F3DC3031651E04F8011CB5421A460AD215F8012B03F8012BF7E71A463024214402F8024B5970101A02B070BD2DE9F04F91B08B4615461E461A9F044601F06CFAEF
:40230000D0F800A0504600F019FC00230E933B680990073323F0070303F108029BF818803A60D3E90023CBE91223DBE9120100F0B9FB0128DBE9120119D100220023FFF718
:4023400031FC10B12D238BF84330A04BA04FB8F1470F88BF1F460323CBF81030DBF8003023F00403CBF800304FF00009A1E000F099FBDBF8003048B9964A974FB8F1470F55
:4023800088BF17460322CBF81020E9E7DBF80420DBE91201571CCDE90A0101D1062209E0B8F1670F02D0B8F1470F05D1002A40F0C7810122CBF80420DBF8042043F4806329
:4023C0008DE80C00CBF800300DF1330302930DAB03930EAB059300230693CDF81080DDE90A232046FFF7F3FE08F0DF03472B07460AD10D9BD81C03DBDBF80420934237DDE2
:40240000A8F102085FFA88F8B8F1650F0D9915D8013942460BF150000D91FFF736FF0E9A81468318012ACBF8103003DCDBF80020D10738D50133CBF8103034E0B8F1660F41
:4024400018D10029DBF8043009DDCBF810101BB9DBF80020D20721D501330B441CE01BB9DBF80020D00701D5023315E0012313E04FF067080D9B0E9A934207DBDBF8002008
:40248000CBF81030D10709D5013305E0002BD4BFC3F1020301231344CBF810300D9B4FF00009CBF858309DF8333013B12D238BF843300096204659460FAA2B4600F05CF90E
:4024C000013002D14FF0FF3052E1DBF800305A0505D4204629463A46DBF8103008E1B8F1650F40F2D080DBE9120100220023FFF74FFB50B320462946384A0123B04701300A
:40250000E0D00E9B0D9A9A4209DBDBF80030D80705D4DBF800309F0700F1108107E1204629465246099BB0470130CBD000270E9B013B9F42EDDA204629460BF11A02012374
:40254000B0470130BED00137F1E70D9B002B29DC20462946214A0123B0470130B2D00D9B2BB90E9B1BB9DBF80030D907D1D5204629465246099BB0470130A3D04FF000082A
:402580000D9B20465B429845294608DA0BF11A020123B047013095D008F10108F0E73A460E9BA5E0DBF858200E9B9A42A8BF1A46002A914602DC4FF000081CE02046294664
:4025C0003A464B46B0470130F5D17BE74E4300004A43000056430000524300005A430000204629460BF11A020123B04701303FF469AF08F10108DBF85830B9F1000FB4BF84
:402600001A46C9EB03029045EADB07EB03080D9A0E9B9A4210DBDBF80030DA070CD40E9A1744C8EB07030D9FD21B9342A8BF1346002B1F4608DC0EE0204629465246099BAE
:40264000B0470130EBD13DE7204629464246B04701303FF437AF4FF000080AE0204629460BF11A020123B04701303FF42BAF08F101080D9A0E9B002FA3EB0203A8BFDB1BCC
:402680009845EBDB45E70E9A012A01DCDB0736D5204629463A460123B04701303FF412AF204629465246099BB04701303FF40AAFDBE9120100220023FFF76AFAE8B90E9B34
:4026C000204629467A1C013B1DE0204629460BF11A020123B04701303FF4F4AE01370E9B013B9F42F1DB204629464B460BF15002B04701307FF40DAFE4E60027EFE7204626
:4027000029463A460123B0470130ECD1DAE6204629460BF119020123B04701303FF4D2AE0137DBF80C300F9A9B1A9F42EFDBDBF80C000F9B9842B8BF184619E00027F0E777
:4027400043F480638DE80C00CBF800300DF1330302930DAB03930EAB059300230693CDF810802046DDE90A23FFF731FD074640E611B0BDE8F08F00BF2DE9F84391461F4631
:402780008A680B6906469342B8BF1346C9F8003091F843200C46DDF8208012B10133C9F800302368990642BFD9F800300233C9F80030256815F006051CD094F843302268D2
:4027C000003318BF012392061FD5E118302081F843005A1C94F845102244023382F8431013E03046394604F119020123C047013007D00135E368D9F800209B1A9D42F0DB5F
:40280000DBE74FF0FF30BDE8F8833046394604F14302C0470130F4D02268D9F80050E36802F00602042A08BF5D1B2269A3680CBF25EAE57500259342C4BF9B1AED184FF080
:402840000009A9450ADA3046394604F11A020123C0470130D5D009F10109F2E70020BDE8F88300002DE9FF410C461746227E98466E2A06460A9B01F1430100F0B08012D80D
:40288000632A23D00AD8002A00F0BD80582A40F0CC8084F84520DFF804E257E0642A1ED0692A1CD0C1E0732A00F0B18009D86F2A2ED0702A40F0B980226842F02002226057
:4028C0003FE0752A24D0782A3BD0AEE01A6804F14205111D1960136884F84230A9E020681A6810F0800F02D0101D186008E010F0400F02F10400186002D0B2F9003000E051
:402900001368002B3EDA2D225B4284F8432039E020681A6810F0800F02D0101D186007E010F0400F02F10400186001D0138800E01368227EDFF864E16F2A0CBF08220A2203
:402940001CE07822DFF858E184F845202268186812F0800F00F104051D6003D1550601D5038800E00368D00744BF42F0200222601BB9226822F0200222601022002084F851
:40298000430002E0DFF814E10A226568002DA8BF2068A560A4BF20F00400206003B965B10D46B3FBF2F002FB10331EF8033005F8013D03460028F4D100E00D46082A0BD125
:4029C0002368DA0708D5236962689A42DEBF302305F8013C05F1FF35491B21612EE025681A6815F0800F606903D0151D1D60136808E015F0400F02F104051D60136801D0AA
:402A0000188000E01860002323610D4616E01A68111D1960156800212846626800F0E8FE08B1401B6060636804E004F1420584F8422001232361002384F84330CDF8008045
:402A40003046214603AA3B46FFF796FE013002D14FF0FF301FE0304639462A462369C0470130F5D023689B0705D4E068039B9842B8BF18460FE00025E368039A9B1A9D4237
:402A8000F3DA3046394604F119020123C0470130DED00135F0E704B0BDE8F0815C4300006D43000031F0004310B51BD00F4AA1F58014944210D901F1FF410C4A01F5E0015F
:402AC000914209D9B3F5801F08D3094A934207D1B0FA80F0400910BD042010BD032010BD002010BD0028E6D1022010BDFFFFDF7F0000F07F0EB400B54FF402719CB0ADF84A
:402B000014106FF00041049107914FF6FF711DABADF81610084953F8042B02900690086802A9019301F052FA029B00221A701CB05DF804EB03B070478481FF1F034613F843
:402B4000012B002AFBD1181A013870472DE9F74F03690C698046A3427EDB013C01F114074FEA840E00F1140606EB0E0357F82450019356F824300135B3FBF5F507EB0E09DE
:402B8000BDB34FF0000A3846B446D34650F8043B9AB21B0C02FB05A26B4303EB124392B2C2EB0B0BBCF800204FEA134A5A441FFA83FBDCF800304845CBEB134303EB2243A6
:402BC00092B242EA03424FEA234B4CF8042BDDD956F80E306BB9019B043BB3421A4602D8C8F8104005E01268043B002AF8D1013CF3E7404601F01BF800282BDB304601357A
:402C00004FF0000E57F8042B036891B2C1EB0E0E120C99B27144C2EB134303EB214389B24FEA234E4F4541EA034340F8043BE9D956F8242006EB840362B9043BB3421A4604
:402C400002D8C8F8104005E01268043B002AF8D1013CF3E7284600E0002003B0BDE8F08F2DE9F04F456A95B08246219CCDE9022345B9102000F0B4FDCAF824004560856095
:402C80000560C560DAF82430196859B15A68012393404A608B60504600F0EDFDDAF8243000221A60039BA24A002BBDBF01232360039B0023BCBF23F000430393039FA8BF50
:402CC000236027F000431B0D1B0593421DD142F20F73209A1360029B43B9964A964BC7F31300002814BF1846104600E09248229B002B00F06985C37813B100F1080300E0D8
:402D0000C31C229A136000F05FBDDDE902450022204629460023FEF73BFF804658B1209A01231360229B002B00F03C8583481860013800F049BD13AB009312AB01935046C0
:402D400022462B4600F0EEFFC7F30A5607905EB1C5F3130343F07F51204641F44011A6F2FF36CDF844801DE0139B129E1E446FF482639E42A1BF029A06F2124322FA03F08D
:402D80006F4BB7BF6F4B9B1B029A9B1BAABF9F4002FA03F03843FEF71DFC0123A1F1F871013E11930022684BFEF7D6FA5AA3D3E90023FEF785FC5AA3D3E90023FEF7CEFADA
:402DC000044630460D46FEF715FC57A3D3E90023FEF776FC02460B4620462946FEF7BEFA04460D4601F040FA29468346002220460023FEF7D7FE58B15846FEF7FBFB024610
:402E00000B4620462946FEF7C3FE08B90BF1FF3BBBF1160F0DD84D4B03EBCB03D3E90001DDE90223FEF7DCFE30B10BF1FF3B002300E00123109300E01090129B9E1B731EE6
:402E40000A9345BF5B420993002300234CBF0A930993BBF1000F07DB0A9BCDF834B05B440A9300230B9308E0099BCBEB03030993CBF100030B9300230D931E9B092B29D814
:402E8000052BC4BF043B1E931E9BC8BF0025A3F10203D8BF0125032B21D8DFE803F0020E0410002300E001230C931F9B002B20DC0123069305931A4619E0002300E0012333
:402EC0000C931F9B5B4406930133012B0593B8BF012311E0012500231E930C9501E001230C934FF0FF3306930593002212231F9202E01F9B06930593DAF8244000226260ED
:402F0000042101F114029A4222D86268490001326260F6E7AFF3008061436F63A787D23FB3C8608B288AC63FFB799F501344D33F0000F07F7E430000874300005B43000051
:402F40000EFCFFFFEEFBFFFF0000F83F984300005046616800F05AFCDAF8243020601B680893059B0E2B00F24781002D00F04481DDE90223BBF1000FCDE90E2331DDB14ADC
:402F80000BF00F034FEA2B1602EBC303F006D3E900450CD5DDE90E01AB4B06F00F06D3E90823FEF7B7FC0327CDE9020100E00227DFF8948276B1F10708D5D8E9002320467B
:402FC0002946FEF77DFB04460D460137761008F10808EFE7DDE9020122462B46FEF79AFC1BE0CBF10004DCB1DDE90E01954B04F00F0203EBC203D3E90023FEF761FB924DCA
:40300000241102274CB1E20704D5D5E900230137FEF756FB64100835F4E7CDE9020100E00227109BDBB1DDE90245002220462946864BFEF7B7FD90B1059B83B1069B002B30
:4030400040F3D680294620460022814BFEF738FB0BF1FF36CDE902010137069D01E05E46059D3846DDE90289FEF7C4FA42464B46FEF726FB774B0022FEF770F9CDE9020144
:40308000039BA3F150740394CDB9404649460022714BFEF761F9029A234680468946FEF79FFD002840F0408240464946029A04F10043FEF777FD002840F0308298E0614BF6
:4030C0000C996A1E03EBC203002947D0D3E9002300206249FEF71EFCDDE90223FEF73CF9CDE90201089C4946404601F0BDF80746FEF780FA02460B4640464946FEF72CF946
:40310000DDE90223303704F8017B80468946FEF749FD002840F0378342464B4600204B49FEF71AF9DDE90223FEF73CFD002840F0D080089BE31AAB425ADADDE902010022A1
:40314000434BFEF7BDFA0022CDE90201404B40464946FEF7B5FA80468946C4E7D3E90001DDE90223FEF7ACFA089BCDE902015C191D464946404601F077F80746FEF73AFA54
:4031800002460B4640464946FEF7E6F8303705F8017BA5428046894623D100222F4BDDE90201FEF7DBF802460B4640464946FEF717FD002840F08D80DDE90223002027497A
:4031C000FEF7CAF802460B4640464946FEF7EAFC70B114F8013C621E302B40F0D4821446F7E700221A4BFEF76BFA80468946C0E7DDE90E23CDE90223139B002BC0F28A8008
:40320000BBF10E0F00F386800E4B03EBCB03D3E900671F9B002B23DA059B002B20DC40F07C81304600220C4B3946FEF749FADDE90223FEF7CBFC059D2E46002840F06F8113
:4032400074E100BF98430000604400000000F03F0000244000001C40000014400000E03F089CDDE9028932463B4640464946FEF751FB00F0F9FF0546FEF7BCF932463B463F
:40328000FEF71EFA0B46024649464046FEF764F805F1300E089B04F801EBC3EB040E059B9E452AD102460B46FEF758F832463B4680468946FEF794FC70B94046494632465E
:4032C0003B46FEF765FC002800F05E82EB0703D45AE2B34600E01C4614F8012C631E392A07D1089A9342F6D13023137013460BF1010B1A7801321A7046E20022A34BFEF7D9
:40330000DFF90022002380468946FEF741FC0028A9D039E20C9A002A32D01E9A012A0ADC119A12B103F2334302E0129BC3F136030B9D099C18E0059B5D1E0B9BAB42B7BF94
:403340000B9B5D1BEA1A0D9BBEBF0B959B180D93059BB8BF0025002BB9BF099B059A099C059BBCBF9C1A0023099A50461A4409920A9A01211A440A9200F01FFB064602E02E
:403380000B9D099C0C9E64B10A9B002B09DDA342A8BF2346099AE41AD21A09920A9AD31A0A930B9B002B20DD0C9BC3B1002D10DD31462A46504600F099FB0646079A3146D8
:4033C000504600F003FB07460799504600F053FA07970B9B5A1B08D05046079902E0504607990B9A00F082FB07905046012100F0E4FA0D9B0546002B0ADD29461A46504611
:4034000000F074FB1E9B0546012B04DD00271BE01E9B012B13DC029B8BB9039BC3F313037BB9039B23F000473F0D3F0557B1099B0127013309930A9B01330A9302E00027FC
:4034400000E0029F0D9B43B12B6905EB8303186900F066FAC0F1200000E001200A9B184410F01F0008D0C0F12003042B02DDC0F11C0002E008D018461C30099B0444034444
:4034800009930A9B03440A93099B002B05DD504607991A4600F078FB07900A9B002B05DD294650461A4600F06FFB0546109BEBB10798294600F0BBFB002817DA002350461D
:4034C00007990A2200F0EEF90C9B0BF1FF3B0790002B00F06B813146002350460A2200F0E1F9069B0646002B33DC68E1059B002B26DC1E9B022B23DD059B0693069B73B95F
:4035000029460522504600F0CDF905460798294600F08DFB002809DC01E000252E461F9B089C6FEA030B08E0B3462E46089B089A5C1C312313700BF1010BB14600260FE18E
:403540000C9B23B9059B0693089F079CC9E0059B0693002C05DD31465046224600F014FB0646AFB17168504600F050F90446326906F10C01023292000C30FEF715FE504604
:403580002146012200F000FB814602E000002440B146089F079C29462046FFF7D7FA3146099000F13008204600F041FB4A4605902946504600F057FBC26803463AB91946B0
:4035C0002046079300F033FB079B024600E0012250461946079200F04EF9079A92B91E9B83B9029B03F0010363B9B8F1390F3B4607943ED0059B7C1C002BC4BF099B03F1D1
:4036000031083DE0059B002B04DA002AC446079408DC21E024D11E9B13BB029B03F00103F3B9F2E72146012250460597CDF8088000F0AAFA2946079000F0F9FA0028DDF8BF
:4036400008C0059B03DC07D118F0010F04D0B8F1390F0ED008F1010C7C1C87F800C07FE0002A07F101020EDDB8F1390F3B46079403D1392201371A7057E0144608F1010893
:4036800087F800806CE0089B1746D31A02F8018C069A93423AD021460A220023504600F001F94E450446314650464FF00A024FF0000304D100F0F6F8064681466BE700F017
:4036C000F1F8494606460A225046002300F0EAF8814660E7214650460A22002300F0E2F8044620462946FFF731FA089B00F1300807F8018B069AFB1A9342EBDB089BB146AA
:40370000012AACBF9B1801331F46002621460122504600F039FA2946079000F088FA002803DC15D118F0010F12D03C4614F8013C621E392B09D1089B9A4204D10BF1010BFA
:403740003123089A02E01446F0E70133137007E03C4614F8013C621E302B01D11446F8E75046294600F087F8B9F1000F0CD02EB14E4503D05046314600F07DF8504649460C
:4037800000F079F800E0B3465046079900F073F80023209A23700BF101031360229B1BB11C6001E00A480FE008980DE0069B002B3FF7CAAE1E9B022B3FF7A0AEC4E61E9B60
:4037C000022B3FF79BAEC4E615B0BDE8F08F00BF5A430000AFF30080004870478881FF1F024B0146186800F041BB00BF8481FF1F10B5C9B202449042034605D01C780130C9
:403800008C42F8D1184610BD002010BD70B5456A04460E463DB91020FFF7E2FF6062456085600560C560656AEB6843B1636ADB6853F8260078B1026843F8262017E020468C
:403840000421212200F0C0FA636AE860DB68002BECD1002070BD012101FA06F56A1D2046920000F0B1FA0028F3D04660856000230361C36070BD70B5446A06460D463CB9C3
:403880001020FFF7ADFF7062446084600460C4603DB1736A6A68DB6853F82210296043F8225070BD2DE9F04106460C460F69984601F1140E0023DEF80000013385B2010CD4
:4038C00002FB0585514301EB1541ADB24FEA1148BB4205EB01414EF8041BECDBB8F1000F1BD0A3689F4212DB616830460131FFF78DFF0546226904F10C01023292000C30D6
:40390000FEF752FC21463046FFF7B5FF2C4604EB87030137C3F8148027612046BDE8F081030C1B0413B90004102300E0002310F07F4F04BF0002083310F0704F04BF0001C2
:40394000043310F0404F04BF80000233002803DB420003D5581C70471846704720207047036813F007020BD0D90722D49A074BBF5B089B08036003604CBF0120022070470E
:4039800099B209B91B0C102213F0FF0F04BF1B0A0832190704BF1B090432990704BF9B080232D90702D45B0805D00132036010467047002070472020704710B50C4601215F
:4039C000FFF724FF01224461026110BD2DE9F74F14460A69236988469A42BEBF0B46A0461C46D8F81070D4F81090D8F80830D8F8041007EB09069E42C8BF0131FFF706FF04
:403A000000F114052B4605EB860C634503D2002243F8042BF9E704F1140208F1140102EB890301EB87070093009B01929A4257D2B2F800B0BBF1000F23D08946AE464FF0C4
:403A4000000859F8044BBEF800A0A3B20BFB03A34FEA144ADEF8004043444FEA14480BFB0A84F24604EB13449BB243EA04434F454FEA14484AF8043B01D9D646E1E7CEF87D
:403A80000480019B0432B3F802A0BAF1000F21D02C4689462B684FF00008B9F800E0B4F802B09BB20AFB0EBEA346F04443EA08434BF8043B59F8043BB4F804E01B0C0AFB2D
:403AC00003E3B94503EB18434FEA134801D25C46E3E763600435A7E75CF8043D13B9013E002EF9DC066103B0BDE8F08F12F003032DE9F04106460F46154607D0214A013B92
:403B000052F823200023FFF7CDFE0746AD1035D0746A3CB91020FFF763FE7062446084600460C460D6F82480D8F808407CB9304640F27121FFF741FF0023C8F80800044665
:403B4000036004E06D1019D0206870B10446EB07F8D5394622463046FFF738FF804639463046FFF788FE4746ECE7304621462246FFF72CFF002320600360E7E73846BDE868
:403B8000F08100BF884400002DE9F0470C460746164623694FEA621A0AEB03094968A36809F101059D4202DD01315B00FAE73846FFF72CFE804600F114010023534504DA94
:403BC000002241F823200133F8E72AEAEA73206901EB830316F01F0204F1140101EB800E14D0C2F1200C00200E689A469640304343F8040B51F8040B714520FA0CF0F3D347
:403C0000CAF8040048B109F1020506E0043B51F8042B714543F8042FF9D3013D3846C8F810502146FFF727FE4046BDE8F08703690A6910B59B1A11D1920014301431831846
:403C40000A4453F8044D52F8041D8C4202D007D3012010BD8342F4D8002010BD184610BD4FF0FF3010BD2DE9F84307460C46084611461546FFF7DBFF061E08D138463146F1
:403C8000FFF7C4FD012303614661BDE8F883BCBF23462C4638466168BABF1D4601260026FFF7B4FD2B69C660266905F1140904F1140101EB860709EB830800F114054FF0EA
:403CC000000C51F8042B59F8044B93B29C44A3B2240CC3EB0C03C4EB124202EB23429BB24FEA224CC84543EA02428E4645F8042BE7D8BE450ED25EF8043B9AB262441B0CE2
:403D000003EB224392B242EA03424FEA234C45F8042BEEE755F8043D0BB9013EFAE70661BDE8F8832DE9F3411C4601211546089F099EFFF76BFDC4F31302C4F30A5480461D
:403D40000CB142F480120192EDB102A840F8085DFFF706FE009B50B1019AC0F1200102FA01F10B43C240C8F81430019201E0C8F81430019B002B14BF02250125C8F818309A
:403D8000C8F8105009E001A8FFF7EAFD019B0125C8F81430C8F81050203034B1A4F2334404443C60C0F1350009E0A0F2324008EB850338601869FFF7B3FDC0EB45103060CB
:403DC000404602B0BDE8F08138B502FB01F4214600F04CF8054618B100212246FEF7EFF9284638BD30B500293CD051F8042C0B1F1D49002AB8BF9B180A680C4612B95A605E
:403E00000B6030BD93420DD219685818904201BF5A5852181A60426823605A6030BD994203D80A4651680029F9D1146815199D420AD11B682344D0188842136012D1086811
:403E4000034413604B680CE002D90C23036030BD1C681819884201BF08684968001918605960536030BD00BF3482FF1F70B5CC1C24F0030408340C2C38BF0C24002C064677
:403E800003DA0C233360002070BD8C42F9D3204A136810461946A1B10A68121B0ED40B2A03D90A608B188C501FE08B420BBF5A684A6802605A6018BF0B4616E00B464968CF
:403EC000E9E7144D2B681BB9304600F071F928603046214600F06CF9421C0346D1D0C51C25F0030585420AD11C6003F10B001A1D20F00700821A0AD05142995070BD30465A
:403F0000E91A00F055F90130BBD02B46ECE770BD3482FF1F3082FF1F2DE9F0478E688246B3420C469046994640D38A8912F4906F3AD02568096902236F1A656905EB45057E
:403F400095FBF3F57B1C4B449D4238BF1D4653050FD52946FFF78AFF064698B121693A46FEF722F9A38923F4906343F08003A38113E02A4600F047F9064670B95046216959
:403F8000FFF730FF0C23CAF80030A3894FF0FF3043F04003A381BDE8F08726613E4426604E466561ED1BA560B14500D24E4632462068414600F00CF9A36800209B1BA360B9
:403FC00023681E442660BDE8F08700002DE9F0439DB003938B8906461C060D4690460CD50B6953B94021FFF741FF2860286110B90C233360CCE040236B61002309932023EA
:404000008DF8293030238DF82A3043461C4613F8012B1AB9B4EB08090FD002E0252AF5D1F8E73046294642464B46FFF775FF013000F0A980099B4B4409932378002B00F0DF
:40404000A28000234FF0FF3204930793059206938DF853301A9304F101084446DFF84891217848460522FFF7C3FB08F10108049B30B1C9EB00000122824013430493ECE760
:40408000D80644BF20228DF85320190744BF2B228DF8532022782A2A02D0079923460EE0039A0134111D12680391002ABBBF524243F0020307920792B8BF04930AE01C46BC
:4040C00022780133303A092A03D80A2000FB0121F5E7079123782E2B1AD163782A2B0AD1039B02341A1D1B680392002BB8BF4FF0FF3305930CE0611C00220C46237801315D
:40410000303B092B03D80A2000FB0232F5E70592DFF89880217840460322FFF769FB38B1049AC8EB00004023834013430493013421781A48062204F101088DF82810FFF756
:4041400057FB88B1164B33B9039B073323F007030833039313E003AB0093304604A92A46104BFEF7C3F807E003AB0093304604A92A460C4BFEF776FB421C074603D0099B35
:404180003B44099341E7AB895B0601D4099801E04FF0FF301DB0BDE8F08300BF9E440000ED220000193F0000944400009A44000038B5064C0023054608462360FCF736F820
:4041C000431C02D1236803B12B6038BD4082FF1F814210B501EB020301D3421E0BE09842FBD28118D21AD34204D013F8014D01F8014DF8E710BD994204D011F8014B02F8F7
:40420000014FF8E710BDF8B5074615460E4621B91146BDE8F840FFF729BE1AB9FFF7E2FD2846F8BD00F015F8A8420ED238462946FFF71CFE044650B131462A46FDF7B4FF86
:4042400038463146FFF7CEFD01E03046F8BD2046F8BD51F8040C0028BEBF091851F8043CC0180438704700004FEA410212F5001215D211D56FF47873B3EB625212D94FEAC8
:40428000C12343F0004343EA505311F0004F23FA02F018BF404270474FF00000704750EA013005D111F0004008BF6FF0004070474FF00000704700BF00000000000000001B
:4042C000416E67756C6F202D2044697374000000252E3266207220252E316620636D00000A0D0000252E32662C20252E31662C2025316400035B004024430040400000001D
:40430000004F00401800005100401000305100402000C0510040100000000140800C000D0140000300140140000800400140000A004C01400002005001402000800C0140E0
:40434000B8040048800000004300494E4600696E66004E414E006E616E00300030313233343536373839414243444546003031323334353637383961626364656600496E57
:4043800066696E697479004E614E00504F534958002E000000000000000000000000F03F000000000000244000000000000059400000000000408F40000000000088C340E6
:4043C00000000000006AF8400000000080842E4100000000D01263410000000084D797410000000065CDCD41000000205FA00242000000E876483742000000A2941A6D422E
:40440000000040E59C30A2420000901EC4BCD64200003426F56B0C430080E03779C3414300A0D8855734764300C84E676DC1AB43003D9160E458E143408CB5781DAF15447B
:4044400050EFE2D6E41A4B4492D54D06CFF08044F64AE1C7022DB544B49DD9794378EA440080E03779C34143176E05B5B5B89346F5F93FE9034F384D321D30F94877825A03
:404480003CBF737FDD4F157505000000190000007D000000232D302B2000686C4C0065666745464700000000F8B500BFF8BC08BC9E4670474D000000A9020000F8B500BFEC
:4044C000F8BC08BC9E46704729000000E04400000881FF1FB80000008800000000000000000000004882FF1F01FF00000000E02EC05D00001800000000366E0100000000A5
:4045000000000000000000000000000000000000000000000000000000000000484300000000000000000000000000000000000000000000000000000000000000000000F0
:40454000000000000000000000000000000000000000000000000000000000002481FF1F914300009944000099440000994400009944000099440000994400009944000099
:404580009944000099440000FFFFFFFFFFFFFFFFFFFFFFFFFFFF0000000000000000000000000000000000000000000000000000000000000000000000000000000000004F
:4045C00000000000000000000000000000000000000000000000000000000000000000000000000000000000000000000000000000000000000000000000000000000000BB
:40460000000000000000000000000000000000000000000000000000000000000000000000000000000000000000000000000000000000000000000000000000000000007A
:40464000000000000000000000000000000000000000000000000000000000000000000000000000000000000000000000000000000000000000000000000000000000003A
:4046800000000000000000000000000000000000000000000000000000000000000000000000000000000000000000000000000000000000000000000000000000000000FA
:020000040003F7
:0200000480007A
:4000000001450040044F0040055200400364004002650040040001400101014003030140220A0140270B0140370D0140690E0140340F014004150140041701402E18014015
:4000400013190140241A01401F1B014003400140034101400342014007430140064401400745014003460140064701401148014008490140094C01400C4D014005500140DD
:40008000015101407E0201100AB10D10167209402801300134407C408A388D728F0F7A018A0DB808BE04D804DF011C208410A010E008010402020401050609020D060E028B
:4000C0000F0912011401150F19091B061E011F09210E230126042A04300131073202350E360438023B0A3E445418580459045B045C225D205F0101020322084009080A01E1
:400100000B40122819401B06200821082220234028403198332038283A023B405A026140630890289203974099129A02A180A208A404A508C00DC20DC406CA01CC0ECE0F54
:40014000D601D80C00240140028409080A010B44108012031328180419511A012180228129502A05302031883301380239103B40400441884805490252085901682069106C
:400180006B057094720273289002914093049F04A011A202A420AC02AD04B461B540C00FC20FC40FCA0FCC0FCE0DD00ED20CD601E00804100582072908800A030D200E2065
:4001C0000FC410091210145C15E31602186C19E31A1124702541260C273A2814308031E0321F330334603510370C38203E113F404002464049FF4A074BFF4C404D204EF091
:400200004F055008580459045A045C225D025F01604061A8624063208310840185278616870889068B098E039140930B941C9603980199279A0E9B189E1CA580A608A91497
:40024000AB29B160B20FB31EB41AB580B701B902BA28BB08BF50C034C102C50EC6C0C70BC819C9FFCAFFCBFFCEF0CF44D00CD401D804D904DA04DB04DC22DD22DF01E6C044
:40028000EA40EB02009002100301071109190A040D080E0611081204161018941D081E041F08206221042202230425052641271828202D042F0830203304371138403908A7
:4002C0003D023E143F2040044514470148404D045210560457105C025E905F08C0A7C2EEC426CA62CCA6CEEAD0E4D6F0E080EA04EC10EE04E202E648EA02EE0A404149FFAE
:400300004AFF4BFF4F01501852805A045B045D115F016040624064406540668068806A806C806E808301AF01B701C051C9FFCAFFCBFFCD83CE03CF01D018D904DA04DB042D
:40034000DC10DD01DF01E040E240E440E540E680E880EA80EC80EE8022802A403A0140024402464148016A407401764087018F02CA08CE01D098D208E648EA02EE0A0001B3
:4003800003012F01360137013E403F40401445EC4720482349FF4AFF4BFF4D834E034F0150185401580459045A045B045D115F016040624064406540668068806A806C80CA
:4003C0006E80DB04DF0103801A02224028022A403A014002410249055102520159055A806B016F0286018B809A409E019F01A702AAC0C008CA08CE01D009D60BE080E402CB
:40040000E804EC1033813644CCF09F01A644A7809F01A644A780650168809F01A644A780D880DC200B0254207F40C202D402DE01841087409780B420B701EA02EC08450851
:40044000A010D00108080B040F40A010A508C20E251067086B2087248D019D01A480A604AE40AF81C820D880DA40E240E610EA40EE5019408940A880AA04B510C640EA20C7
:40048000EE200F0262018701A010A508AC08AF44C201D80253105410630287108B01A010AA01B508D406D602E001EC0800040C040E0410021C0200EA00026300F3000C00FF
:4004C00002010000810000069F012000FF060000000180009C00430608060000040400000C06000003000006100600000F00EC010000A000000001002103060005E0000C48
:4005000012FFFFFF62A0F0410C00000000000213040404042222000100000000000040020010301000101012000000000000000000000000000000006000002000000000BF
:40054000C000000080CB4B0040000000007F7F00000000000045450045000000010040010100010020000000BB0018010000000000000000000000000000000000000000E0
:40058000000000000000000000000000000000000000000000000000000000000000000000000000000000000000000000000000000000000000000000000000000000003B
:4005C00000000000000000000000000000000000000000000000000000000000000000000000000000000000000000000000000000000000000000000000000000000000FB
:4006000000000000000000000000000000000000000000000000000000000000000000000000000000000000000000000000000000000000000000000000000000000000BA
:40064000000000000000000000000000000000000000000000000000000000000000000000000000000000000000000000000000000000000000000000000000000000007A
:0200000490006A
:0400000000004005B7
:0200000490105A
:04000000BC90ACAF55
:0200000490303A
:020000001704E3
:0200000490402A
:4000000000000000000000000000000000000000000000000000000000000000000000000000000000000000000000000000000000000000000000000000000000000000C0
:400040000000000000000000000000000000000000000000000000000000000000000000000000000000000000000000000000000000000000000000000000000000000080
:400080000000000000000000000000000000000000000000000000000000000000000000000000000000000000000000000000000000000000000000000000000000000040
:4000C0000000000000000000000000000000000000000000000000000000000000000000000000000000000000000000000000000000000000000000000000000000000000
:0200000490501A
:0C00000000012E12306900012E2E476D09
:00000001FF